{
  "abi": [
    {
      "inputs": [
        {
          "internalType": "string",
          "name": "name",
          "type": "string"
        },
        {
          "internalType": "string",
          "name": "symbol",
          "type": "string"
        },
        {
          "internalType": "uint256",
          "name": "maxSupply",
          "type": "uint256"
        },
        {
          "internalType": "uint256",
          "name": "tokenPrice",
          "type": "uint256"
        }
      ],
      "stateMutability": "nonpayable",
      "type": "constructor"
    },
    {
      "anonymous": false,
      "inputs": [
        {
          "indexed": true,
          "internalType": "address",
          "name": "owner",
          "type": "address"
        },
        {
          "indexed": true,
          "internalType": "address",
          "name": "approved",
          "type": "address"
        },
        {
          "indexed": true,
          "internalType": "uint256",
          "name": "tokenId",
          "type": "uint256"
        }
      ],
      "name": "Approval",
      "type": "event"
    },
    {
      "anonymous": false,
      "inputs": [
        {
          "indexed": true,
          "internalType": "address",
          "name": "owner",
          "type": "address"
        },
        {
          "indexed": true,
          "internalType": "address",
          "name": "operator",
          "type": "address"
        },
        {
          "indexed": false,
          "internalType": "bool",
          "name": "approved",
          "type": "bool"
        }
      ],
      "name": "ApprovalForAll",
      "type": "event"
    },
    {
      "anonymous": false,
      "inputs": [
        {
          "indexed": false,
          "internalType": "uint256",
          "name": "_tokenId",
          "type": "uint256"
        },
        {
          "indexed": false,
          "internalType": "uint256",
          "name": "refundAmount",
          "type": "uint256"
        }
      ],
      "name": "Refund",
      "type": "event"
    },
    {
      "anonymous": false,
      "inputs": [
        {
          "indexed": true,
          "internalType": "address",
          "name": "from",
          "type": "address"
        },
        {
          "indexed": true,
          "internalType": "address",
          "name": "to",
          "type": "address"
        },
        {
          "indexed": true,
          "internalType": "uint256",
          "name": "tokenId",
          "type": "uint256"
        }
      ],
      "name": "Transfer",
      "type": "event"
    },
    {
      "anonymous": false,
      "inputs": [
        {
          "indexed": false,
          "internalType": "string",
          "name": "uri",
          "type": "string"
        },
        {
          "indexed": true,
          "internalType": "uint256",
          "name": "tokenId",
          "type": "uint256"
        }
      ],
      "name": "URI",
      "type": "event"
    },
    {
      "inputs": [],
      "name": "_maxSupply",
      "outputs": [
        {
          "internalType": "uint256",
          "name": "",
          "type": "uint256"
        }
      ],
      "stateMutability": "view",
      "type": "function"
    },
    {
      "inputs": [
        {
          "internalType": "address",
          "name": "to",
          "type": "address"
        },
        {
          "internalType": "uint256",
          "name": "tokenId",
          "type": "uint256"
        }
      ],
      "name": "approve",
      "outputs": [],
      "stateMutability": "nonpayable",
      "type": "function"
    },
    {
      "inputs": [
        {
          "internalType": "address",
          "name": "owner",
          "type": "address"
        }
      ],
      "name": "balanceOf",
      "outputs": [
        {
          "internalType": "uint256",
          "name": "",
          "type": "uint256"
        }
      ],
      "stateMutability": "view",
      "type": "function"
    },
    {
      "inputs": [
        {
          "internalType": "uint256",
          "name": "tokenId",
          "type": "uint256"
        }
      ],
      "name": "getApproved",
      "outputs": [
        {
          "internalType": "address",
          "name": "",
          "type": "address"
        }
      ],
      "stateMutability": "view",
      "type": "function"
    },
    {
      "inputs": [
        {
          "internalType": "address",
          "name": "owner",
          "type": "address"
        },
        {
          "internalType": "address",
          "name": "operator",
          "type": "address"
        }
      ],
      "name": "isApprovedForAll",
      "outputs": [
        {
          "internalType": "bool",
          "name": "",
          "type": "bool"
        }
      ],
      "stateMutability": "view",
      "type": "function"
    },
    {
      "inputs": [
        {
          "internalType": "string",
          "name": "_tokenURI",
          "type": "string"
        }
      ],
      "name": "mintNFT",
      "outputs": [
        {
          "internalType": "uint256",
          "name": "",
          "type": "uint256"
        }
      ],
      "stateMutability": "payable",
      "type": "function"
    },
    {
      "inputs": [],
      "name": "name",
      "outputs": [
        {
          "internalType": "string",
          "name": "",
          "type": "string"
        }
      ],
      "stateMutability": "view",
      "type": "function"
    },
    {
      "inputs": [],
      "name": "nextSaleNumber",
      "outputs": [
        {
          "internalType": "uint256",
          "name": "",
          "type": "uint256"
        }
      ],
      "stateMutability": "view",
      "type": "function"
    },
    {
      "inputs": [
        {
          "internalType": "uint256",
          "name": "tokenId",
          "type": "uint256"
        }
      ],
      "name": "ownerOf",
      "outputs": [
        {
          "internalType": "address",
          "name": "",
          "type": "address"
        }
      ],
      "stateMutability": "view",
      "type": "function"
    },
    {
      "inputs": [
        {
          "internalType": "uint256",
          "name": "_tokenId",
          "type": "uint256"
        }
      ],
      "name": "refund",
      "outputs": [],
      "stateMutability": "payable",
      "type": "function"
    },
    {
      "inputs": [
        {
          "internalType": "address",
          "name": "from",
          "type": "address"
        },
        {
          "internalType": "address",
          "name": "to",
          "type": "address"
        },
        {
          "internalType": "uint256",
          "name": "tokenId",
          "type": "uint256"
        }
      ],
      "name": "safeTransferFrom",
      "outputs": [],
      "stateMutability": "nonpayable",
      "type": "function"
    },
    {
      "inputs": [
        {
          "internalType": "address",
          "name": "from",
          "type": "address"
        },
        {
          "internalType": "address",
          "name": "to",
          "type": "address"
        },
        {
          "internalType": "uint256",
          "name": "tokenId",
          "type": "uint256"
        },
        {
          "internalType": "bytes",
          "name": "data",
          "type": "bytes"
        }
      ],
      "name": "safeTransferFrom",
      "outputs": [],
      "stateMutability": "nonpayable",
      "type": "function"
    },
    {
      "inputs": [
        {
          "internalType": "address",
          "name": "operator",
          "type": "address"
        },
        {
          "internalType": "bool",
          "name": "approved",
          "type": "bool"
        }
      ],
      "name": "setApprovalForAll",
      "outputs": [],
      "stateMutability": "nonpayable",
      "type": "function"
    },
    {
      "inputs": [
        {
          "internalType": "bytes4",
          "name": "interfaceId",
          "type": "bytes4"
        }
      ],
      "name": "supportsInterface",
      "outputs": [
        {
          "internalType": "bool",
          "name": "",
          "type": "bool"
        }
      ],
      "stateMutability": "view",
      "type": "function"
    },
    {
      "inputs": [],
      "name": "symbol",
      "outputs": [
        {
          "internalType": "string",
          "name": "",
          "type": "string"
        }
      ],
      "stateMutability": "view",
      "type": "function"
    },
    {
      "inputs": [],
      "name": "tokenId",
      "outputs": [
        {
          "internalType": "uint256",
          "name": "",
          "type": "uint256"
        }
      ],
      "stateMutability": "view",
      "type": "function"
    },
    {
      "inputs": [
        {
          "internalType": "uint256",
          "name": "_tokenId",
          "type": "uint256"
        }
      ],
      "name": "tokenURI",
      "outputs": [
        {
          "internalType": "string",
          "name": "",
          "type": "string"
        }
      ],
      "stateMutability": "view",
      "type": "function"
    },
    {
      "inputs": [
        {
          "internalType": "address",
          "name": "from",
          "type": "address"
        },
        {
          "internalType": "address",
          "name": "to",
          "type": "address"
        },
        {
          "internalType": "uint256",
          "name": "tokenId",
          "type": "uint256"
        }
      ],
      "name": "transferFrom",
      "outputs": [],
      "stateMutability": "nonpayable",
      "type": "function"
    },
    {
      "inputs": [],
      "name": "withdraw",
      "outputs": [],
      "stateMutability": "nonpayable",
      "type": "function"
    }
  ],
  "bytecode": {
    "object": "0x608060405260006006553480156200001657600080fd5b5060405162001c5738038062001c57833981016040819052620000399162000143565b838360006200004983826200024c565b5060016200005882826200024c565b505050600a919091556007555050600880546001600160a01b0319163317905562000318565b634e487b7160e01b600052604160045260246000fd5b600082601f830112620000a657600080fd5b81516001600160401b0380821115620000c357620000c36200007e565b604051601f8301601f19908116603f01168101908282118183101715620000ee57620000ee6200007e565b816040528381526020925086838588010111156200010b57600080fd5b600091505b838210156200012f578582018301518183018401529082019062000110565b600093810190920192909252949350505050565b600080600080608085870312156200015a57600080fd5b84516001600160401b03808211156200017257600080fd5b620001808883890162000094565b955060208701519150808211156200019757600080fd5b50620001a68782880162000094565b604087015160609097015195989097509350505050565b600181811c90821680620001d257607f821691505b602082108103620001f357634e487b7160e01b600052602260045260246000fd5b50919050565b601f8211156200024757600081815260208120601f850160051c81016020861015620002225750805b601f850160051c820191505b8181101562000243578281556001016200022e565b5050505b505050565b81516001600160401b038111156200026857620002686200007e565b6200028081620002798454620001bd565b84620001f9565b602080601f831160018114620002b857600084156200029f5750858301515b600019600386901b1c1916600185901b17855562000243565b600085815260208120601f198616915b82811015620002e957888601518255948401946001909101908401620002c8565b5085821015620003085787850151600019600388901b60f8161c191681555b5050505050600190811b01905550565b61192f80620003286000396000f3fe6080604052600436106101145760003560e01c806342842e0e116100a0578063b88d4fde11610064578063b88d4fde146102e1578063baa2b69614610301578063c87b56dd14610317578063e985e9c514610337578063fb37e8831461035757600080fd5b806342842e0e1461024c5780636352211e1461026c57806370a082311461028c57806395d89b41146102ac578063a22cb465146102c157600080fd5b806317d70f7c116100e757806317d70f7c146101ca57806322f4596f146101ee57806323b872dd14610204578063278ecde1146102245780633ccfd60b1461023757600080fd5b806301ffc9a71461011957806306fdde031461014e578063081812fc14610170578063095ea7b3146101a8575b600080fd5b34801561012557600080fd5b50610139610134366004611318565b61036a565b60405190151581526020015b60405180910390f35b34801561015a57600080fd5b506101636103bc565b6040516101459190611382565b34801561017c57600080fd5b5061019061018b366004611395565b61044e565b6040516001600160a01b039091168152602001610145565b3480156101b457600080fd5b506101c86101c33660046113ca565b610475565b005b3480156101d657600080fd5b506101e060065481565b604051908152602001610145565b3480156101fa57600080fd5b506101e0600a5481565b34801561021057600080fd5b506101c861021f3660046113f4565b61058f565b6101c8610232366004611395565b6105c0565b34801561024357600080fd5b506101c861079a565b34801561025857600080fd5b506101c86102673660046113f4565b61082f565b34801561027857600080fd5b50610190610287366004611395565b61084a565b34801561029857600080fd5b506101e06102a7366004611430565b6108aa565b3480156102b857600080fd5b50610163610930565b3480156102cd57600080fd5b506101c86102dc36600461144b565b61093f565b3480156102ed57600080fd5b506101c86102fc366004611513565b61094e565b34801561030d57600080fd5b506101e0600c5481565b34801561032357600080fd5b50610163610332366004611395565b610986565b34801561034357600080fd5b5061013961035236600461158f565b610a7b565b6101e06103653660046115c2565b610aa9565b60006001600160e01b031982166380ac58cd60e01b148061039b57506001600160e01b03198216635b5e139f60e01b145b806103b657506301ffc9a760e01b6001600160e01b03198316145b92915050565b6060600080546103cb9061160b565b80601f01602080910402602001604051908101604052809291908181526020018280546103f79061160b565b80156104445780601f1061041957610100808354040283529160200191610444565b820191906000526020600020905b81548152906001019060200180831161042757829003601f168201915b5050505050905090565b600061045982610b69565b506000908152600460205260409020546001600160a01b031690565b60006104808261084a565b9050806001600160a01b0316836001600160a01b0316036104f25760405162461bcd60e51b815260206004820152602160248201527f4552433732313a20617070726f76616c20746f2063757272656e74206f776e656044820152603960f91b60648201526084015b60405180910390fd5b336001600160a01b038216148061050e575061050e8133610a7b565b6105805760405162461bcd60e51b815260206004820152603d60248201527f4552433732313a20617070726f76652063616c6c6572206973206e6f7420746f60448201527f6b656e206f776e6572206f7220617070726f76656420666f7220616c6c00000060648201526084016104e9565b61058a8383610bb9565b505050565b6105993382610c27565b6105b55760405162461bcd60e51b81526004016104e990611645565b61058a838383610c86565b6105c981610dea565b6106155760405162461bcd60e51b815260206004820152601a60248201527f455243373231413a206e6f6e6578697374656e7420746f6b656e00000000000060448201526064016104e9565b61061e8161084a565b6001600160a01b0316336001600160a01b0316146106935760405162461bcd60e51b815260206004820152602c60248201527f455243373231413a206f6e6c7920746f6b656e206f776e65722063616e20726560448201526b1c5d595cdd081c99599d5b9960a21b60648201526084016104e9565b6000600a60075460096106a691906116a8565b6106b091906116bf565b9050804710156107115760405162461bcd60e51b815260206004820152602660248201527f455243373231413a20696e73756666696369656e742066756e647320666f72206044820152651c99599d5b9960d21b60648201526084016104e9565b61071a82610e07565b600c805490600061072a836116e1565b9091555050604051339082156108fc029083906000818181858888f1935050505015801561075c573d6000803e3d6000fd5b5060408051838152602081018390527f5eee8032448a7f1556f67b8a76a4dcfd75ff98c05198df9f420467d0a1234e38910160405180910390a15050565b6008546001600160a01b031633146108005760405162461bcd60e51b8152602060048201526024808201527f4f6e6c792074686520636f6e7472616374206f776e65722063616e20776974686044820152636472617760e01b60648201526084016104e9565b60405133904780156108fc02916000818181858888f1935050505015801561082c573d6000803e3d6000fd5b50565b61058a8383836040518060200160405280600081525061094e565b6000818152600260205260408120546001600160a01b0316806103b65760405162461bcd60e51b8152602060048201526018602482015277115490cdcc8c4e881a5b9d985b1a59081d1bdad95b88125160421b60448201526064016104e9565b60006001600160a01b0382166109145760405162461bcd60e51b815260206004820152602960248201527f4552433732313a2061646472657373207a65726f206973206e6f7420612076616044820152683634b21037bbb732b960b91b60648201526084016104e9565b506001600160a01b031660009081526003602052604090205490565b6060600180546103cb9061160b565b61094a338383610e9c565b5050565b6109583383610c27565b6109745760405162461bcd60e51b81526004016104e990611645565b61098084848484610f6a565b50505050565b606061099182610dea565b6109dd5760405162461bcd60e51b815260206004820152601f60248201527f55524920717565727920666f72206e6f6e6578697374656e7420746f6b656e0060448201526064016104e9565b600082815260096020526040902080546109f69061160b565b80601f0160208091040260200160405190810160405280929190818152602001828054610a229061160b565b8015610a6f5780601f10610a4457610100808354040283529160200191610a6f565b820191906000526020600020905b815481529060010190602001808311610a5257829003601f168201915b50505050509050919050565b6001600160a01b03918216600090815260056020908152604080832093909416825291909152205460ff1690565b6000600754341015610af25760405162461bcd60e51b8152602060048201526012602482015271496e73756666696369656e742066756e647360701b60448201526064016104e9565b600654600a5411610b345760405162461bcd60e51b815260206004820152600c60248201526b6f7574206f662073746f636b60a01b60448201526064016104e9565b60068054906000610b44836116e1565b9190505550610b5533600654610f9d565b610b6160065483610fb7565b505060065490565b610b7281610dea565b61082c5760405162461bcd60e51b8152602060048201526018602482015277115490cdcc8c4e881a5b9d985b1a59081d1bdad95b88125160421b60448201526064016104e9565b600081815260046020526040902080546001600160a01b0319166001600160a01b0384169081179091558190610bee8261084a565b6001600160a01b03167f8c5be1e5ebec7d5bd14f71427d1e84f3dd0314c0f7b2291e5b200ac8c7c3b92560405160405180910390a45050565b600080610c338361084a565b9050806001600160a01b0316846001600160a01b03161480610c5a5750610c5a8185610a7b565b80610c7e5750836001600160a01b0316610c738461044e565b6001600160a01b0316145b949350505050565b826001600160a01b0316610c998261084a565b6001600160a01b031614610cbf5760405162461bcd60e51b81526004016104e9906116fa565b6001600160a01b038216610d215760405162461bcd60e51b8152602060048201526024808201527f4552433732313a207472616e7366657220746f20746865207a65726f206164646044820152637265737360e01b60648201526084016104e9565b826001600160a01b0316610d348261084a565b6001600160a01b031614610d5a5760405162461bcd60e51b81526004016104e9906116fa565b600081815260046020908152604080832080546001600160a01b03199081169091556001600160a01b0387811680865260038552838620805460001901905590871680865283862080546001019055868652600290945282852080549092168417909155905184937fddf252ad1be2c89b69c2b068fc378daa952ba7f163c4a11628f55a4df523b3ef91a4505050565b6000908152600260205260409020546001600160a01b0316151590565b6000610e128261084a565b9050610e1d8261084a565b600083815260046020908152604080832080546001600160a01b03199081169091556001600160a01b0385168085526003845282852080546000190190558785526002909352818420805490911690555192935084927fddf252ad1be2c89b69c2b068fc378daa952ba7f163c4a11628f55a4df523b3ef908390a45050565b816001600160a01b0316836001600160a01b031603610efd5760405162461bcd60e51b815260206004820152601960248201527f4552433732313a20617070726f766520746f2063616c6c65720000000000000060448201526064016104e9565b6001600160a01b03838116600081815260056020908152604080832094871680845294825291829020805460ff191686151590811790915591519182527f17307eab39ab6107e8899845ad3d59bd9653f200f220920489ca2b5937696c31910160405180910390a3505050565b610f75848484610c86565b610f8184848484611061565b6109805760405162461bcd60e51b81526004016104e99061173f565b61094a828260405180602001604052806000815250611162565b610fc082610dea565b61100c5760405162461bcd60e51b815260206004820152601c60248201527f55524920736574206f66206e6f6e6578697374656e7420746f6b656e0000000060448201526064016104e9565b600082815260096020526040902061102482826117df565b50817f6bb7ff708619ba0610cba295a58592e0451dee2622938c8755667688daf3529b826040516110559190611382565b60405180910390a25050565b60006001600160a01b0384163b1561115757604051630a85bd0160e11b81526001600160a01b0385169063150b7a02906110a590339089908890889060040161189f565b6020604051808303816000875af19250505080156110e0575060408051601f3d908101601f191682019092526110dd918101906118dc565b60015b61113d573d80801561110e576040519150601f19603f3d011682016040523d82523d6000602084013e611113565b606091505b5080516000036111355760405162461bcd60e51b81526004016104e99061173f565b805181602001fd5b6001600160e01b031916630a85bd0160e11b149050610c7e565b506001949350505050565b61116c8383611195565b6111796000848484611061565b61058a5760405162461bcd60e51b81526004016104e99061173f565b6001600160a01b0382166111eb5760405162461bcd60e51b815260206004820181905260248201527f4552433732313a206d696e7420746f20746865207a65726f206164647265737360448201526064016104e9565b6111f481610dea565b156112415760405162461bcd60e51b815260206004820152601c60248201527f4552433732313a20746f6b656e20616c7265616479206d696e7465640000000060448201526064016104e9565b61124a81610dea565b156112975760405162461bcd60e51b815260206004820152601c60248201527f4552433732313a20746f6b656e20616c7265616479206d696e7465640000000060448201526064016104e9565b6001600160a01b038216600081815260036020908152604080832080546001019055848352600290915280822080546001600160a01b0319168417905551839291907fddf252ad1be2c89b69c2b068fc378daa952ba7f163c4a11628f55a4df523b3ef908290a45050565b6001600160e01b03198116811461082c57600080fd5b60006020828403121561132a57600080fd5b813561133581611302565b9392505050565b6000815180845260005b8181101561136257602081850181015186830182015201611346565b506000602082860101526020601f19601f83011685010191505092915050565b602081526000611335602083018461133c565b6000602082840312156113a757600080fd5b5035919050565b80356001600160a01b03811681146113c557600080fd5b919050565b600080604083850312156113dd57600080fd5b6113e6836113ae565b946020939093013593505050565b60008060006060848603121561140957600080fd5b611412846113ae565b9250611420602085016113ae565b9150604084013590509250925092565b60006020828403121561144257600080fd5b611335826113ae565b6000806040838503121561145e57600080fd5b611467836113ae565b91506020830135801515811461147c57600080fd5b809150509250929050565b634e487b7160e01b600052604160045260246000fd5b600067ffffffffffffffff808411156114b8576114b8611487565b604051601f8501601f19908116603f011681019082821181831017156114e0576114e0611487565b816040528093508581528686860111156114f957600080fd5b858560208301376000602087830101525050509392505050565b6000806000806080858703121561152957600080fd5b611532856113ae565b9350611540602086016113ae565b925060408501359150606085013567ffffffffffffffff81111561156357600080fd5b8501601f8101871361157457600080fd5b6115838782356020840161149d565b91505092959194509250565b600080604083850312156115a257600080fd5b6115ab836113ae565b91506115b9602084016113ae565b90509250929050565b6000602082840312156115d457600080fd5b813567ffffffffffffffff8111156115eb57600080fd5b8201601f810184136115fc57600080fd5b610c7e8482356020840161149d565b600181811c9082168061161f57607f821691505b60208210810361163f57634e487b7160e01b600052602260045260246000fd5b50919050565b6020808252602d908201527f4552433732313a2063616c6c6572206973206e6f7420746f6b656e206f776e6560408201526c1c881bdc88185c1c1c9bdd9959609a1b606082015260800190565b634e487b7160e01b600052601160045260246000fd5b80820281158282048414176103b6576103b6611692565b6000826116dc57634e487b7160e01b600052601260045260246000fd5b500490565b6000600182016116f3576116f3611692565b5060010190565b60208082526025908201527f4552433732313a207472616e736665722066726f6d20696e636f72726563742060408201526437bbb732b960d91b606082015260800190565b60208082526032908201527f4552433732313a207472616e7366657220746f206e6f6e20455243373231526560408201527131b2b4bb32b91034b6b83632b6b2b73a32b960711b606082015260800190565b601f82111561058a57600081815260208120601f850160051c810160208610156117b85750805b601f850160051c820191505b818110156117d7578281556001016117c4565b505050505050565b815167ffffffffffffffff8111156117f9576117f9611487565b61180d81611807845461160b565b84611791565b602080601f831160018114611842576000841561182a5750858301515b600019600386901b1c1916600185901b1785556117d7565b600085815260208120601f198616915b8281101561187157888601518255948401946001909101908401611852565b508582101561188f5787850151600019600388901b60f8161c191681555b5050505050600190811b01905550565b6001600160a01b03858116825284166020820152604081018390526080606082018190526000906118d29083018461133c565b9695505050505050565b6000602082840312156118ee57600080fd5b81516113358161130256fea2646970667358221220dec1d653391330e75968499d44a3860a4c53f4de16fccc788471d91c1a07b4e864736f6c63430008130033",
    "linkReferences": {}
  },
  "methodIdentifiers": {
    "_maxSupply()": "22f4596f",
    "approve(address,uint256)": "095ea7b3",
    "balanceOf(address)": "70a08231",
    "getApproved(uint256)": "081812fc",
    "isApprovedForAll(address,address)": "e985e9c5",
    "mintNFT(string)": "fb37e883",
    "name()": "06fdde03",
    "nextSaleNumber()": "baa2b696",
    "ownerOf(uint256)": "6352211e",
    "refund(uint256)": "278ecde1",
    "safeTransferFrom(address,address,uint256)": "42842e0e",
    "safeTransferFrom(address,address,uint256,bytes)": "b88d4fde",
    "setApprovalForAll(address,bool)": "a22cb465",
    "supportsInterface(bytes4)": "01ffc9a7",
    "symbol()": "95d89b41",
    "tokenId()": "17d70f7c",
    "tokenURI(uint256)": "c87b56dd",
    "transferFrom(address,address,uint256)": "23b872dd",
    "withdraw()": "3ccfd60b"
  },
  "id": 11
}