{
  "abi": [
    {
      "inputs": [],
      "stateMutability": "nonpayable",
      "type": "constructor"
    },
    {
      "anonymous": false,
      "inputs": [
        {
          "indexed": true,
          "internalType": "address",
          "name": "owner",
          "type": "address"
        },
        {
          "indexed": true,
          "internalType": "address",
          "name": "approved",
          "type": "address"
        },
        {
          "indexed": true,
          "internalType": "uint256",
          "name": "tokenId",
          "type": "uint256"
        }
      ],
      "name": "Approval",
      "type": "event"
    },
    {
      "anonymous": false,
      "inputs": [
        {
          "indexed": true,
          "internalType": "address",
          "name": "owner",
          "type": "address"
        },
        {
          "indexed": true,
          "internalType": "address",
          "name": "operator",
          "type": "address"
        },
        {
          "indexed": false,
          "internalType": "bool",
          "name": "approved",
          "type": "bool"
        }
      ],
      "name": "ApprovalForAll",
      "type": "event"
    },
    {
      "anonymous": false,
      "inputs": [
        {
          "indexed": true,
          "internalType": "address",
          "name": "from",
          "type": "address"
        },
        {
          "indexed": true,
          "internalType": "address",
          "name": "to",
          "type": "address"
        },
        {
          "indexed": true,
          "internalType": "uint256",
          "name": "tokenId",
          "type": "uint256"
        }
      ],
      "name": "Transfer",
      "type": "event"
    },
    {
      "inputs": [
        {
          "internalType": "address",
          "name": "to",
          "type": "address"
        },
        {
          "internalType": "uint256",
          "name": "tokenId",
          "type": "uint256"
        }
      ],
      "name": "approve",
      "outputs": [],
      "stateMutability": "nonpayable",
      "type": "function"
    },
    {
      "inputs": [],
      "name": "auction",
      "outputs": [
        {
          "internalType": "uint256",
          "name": "startTime",
          "type": "uint256"
        },
        {
          "internalType": "uint256",
          "name": "timeStep",
          "type": "uint256"
        },
        {
          "internalType": "uint256",
          "name": "startPrice",
          "type": "uint256"
        },
        {
          "internalType": "uint256",
          "name": "endPrice",
          "type": "uint256"
        },
        {
          "internalType": "uint256",
          "name": "priceStep",
          "type": "uint256"
        },
        {
          "internalType": "uint256",
          "name": "stepNumber",
          "type": "uint256"
        }
      ],
      "stateMutability": "view",
      "type": "function"
    },
    {
      "inputs": [],
      "name": "auctionMint",
      "outputs": [],
      "stateMutability": "payable",
      "type": "function"
    },
    {
      "inputs": [
        {
          "internalType": "address",
          "name": "owner",
          "type": "address"
        }
      ],
      "name": "balanceOf",
      "outputs": [
        {
          "internalType": "uint256",
          "name": "",
          "type": "uint256"
        }
      ],
      "stateMutability": "view",
      "type": "function"
    },
    {
      "inputs": [],
      "name": "fixedPrice",
      "outputs": [
        {
          "internalType": "uint256",
          "name": "",
          "type": "uint256"
        }
      ],
      "stateMutability": "view",
      "type": "function"
    },
    {
      "inputs": [
        {
          "internalType": "uint256",
          "name": "tokenId",
          "type": "uint256"
        }
      ],
      "name": "getApproved",
      "outputs": [
        {
          "internalType": "address",
          "name": "",
          "type": "address"
        }
      ],
      "stateMutability": "view",
      "type": "function"
    },
    {
      "inputs": [],
      "name": "getAuctionPrice",
      "outputs": [
        {
          "internalType": "uint256",
          "name": "",
          "type": "uint256"
        }
      ],
      "stateMutability": "view",
      "type": "function"
    },
    {
      "inputs": [
        {
          "internalType": "address",
          "name": "owner",
          "type": "address"
        },
        {
          "internalType": "address",
          "name": "operator",
          "type": "address"
        }
      ],
      "name": "isApprovedForAll",
      "outputs": [
        {
          "internalType": "bool",
          "name": "",
          "type": "bool"
        }
      ],
      "stateMutability": "view",
      "type": "function"
    },
    {
      "inputs": [],
      "name": "isMystery",
      "outputs": [
        {
          "internalType": "bool",
          "name": "",
          "type": "bool"
        }
      ],
      "stateMutability": "view",
      "type": "function"
    },
    {
      "inputs": [],
      "name": "name",
      "outputs": [
        {
          "internalType": "string",
          "name": "",
          "type": "string"
        }
      ],
      "stateMutability": "view",
      "type": "function"
    },
    {
      "inputs": [],
      "name": "openMystery",
      "outputs": [],
      "stateMutability": "nonpayable",
      "type": "function"
    },
    {
      "inputs": [],
      "name": "owner",
      "outputs": [
        {
          "internalType": "address",
          "name": "",
          "type": "address"
        }
      ],
      "stateMutability": "view",
      "type": "function"
    },
    {
      "inputs": [
        {
          "internalType": "uint256",
          "name": "tokenId",
          "type": "uint256"
        }
      ],
      "name": "ownerOf",
      "outputs": [
        {
          "internalType": "address",
          "name": "",
          "type": "address"
        }
      ],
      "stateMutability": "view",
      "type": "function"
    },
    {
      "inputs": [],
      "name": "root",
      "outputs": [
        {
          "internalType": "bytes32",
          "name": "",
          "type": "bytes32"
        }
      ],
      "stateMutability": "view",
      "type": "function"
    },
    {
      "inputs": [
        {
          "internalType": "address",
          "name": "from",
          "type": "address"
        },
        {
          "internalType": "address",
          "name": "to",
          "type": "address"
        },
        {
          "internalType": "uint256",
          "name": "tokenId",
          "type": "uint256"
        }
      ],
      "name": "safeTransferFrom",
      "outputs": [],
      "stateMutability": "nonpayable",
      "type": "function"
    },
    {
      "inputs": [
        {
          "internalType": "address",
          "name": "from",
          "type": "address"
        },
        {
          "internalType": "address",
          "name": "to",
          "type": "address"
        },
        {
          "internalType": "uint256",
          "name": "tokenId",
          "type": "uint256"
        },
        {
          "internalType": "bytes",
          "name": "data",
          "type": "bytes"
        }
      ],
      "name": "safeTransferFrom",
      "outputs": [],
      "stateMutability": "nonpayable",
      "type": "function"
    },
    {
      "inputs": [
        {
          "internalType": "address",
          "name": "operator",
          "type": "address"
        },
        {
          "internalType": "bool",
          "name": "approved",
          "type": "bool"
        }
      ],
      "name": "setApprovalForAll",
      "outputs": [],
      "stateMutability": "nonpayable",
      "type": "function"
    },
    {
      "inputs": [
        {
          "internalType": "uint256",
          "name": "_startTime",
          "type": "uint256"
        },
        {
          "internalType": "uint256",
          "name": "_timeStep",
          "type": "uint256"
        },
        {
          "internalType": "uint256",
          "name": "_startPrice",
          "type": "uint256"
        },
        {
          "internalType": "uint256",
          "name": "_endPrice",
          "type": "uint256"
        },
        {
          "internalType": "uint256",
          "name": "_priceStep",
          "type": "uint256"
        },
        {
          "internalType": "uint256",
          "name": "_stepNumber",
          "type": "uint256"
        }
      ],
      "name": "setAuction",
      "outputs": [],
      "stateMutability": "nonpayable",
      "type": "function"
    },
    {
      "inputs": [
        {
          "internalType": "uint256",
          "name": "num",
          "type": "uint256"
        },
        {
          "internalType": "uint256",
          "name": "price",
          "type": "uint256"
        }
      ],
      "name": "setNFTSale",
      "outputs": [],
      "stateMutability": "nonpayable",
      "type": "function"
    },
    {
      "inputs": [
        {
          "internalType": "bytes32",
          "name": "_root",
          "type": "bytes32"
        }
      ],
      "name": "setRoot",
      "outputs": [],
      "stateMutability": "nonpayable",
      "type": "function"
    },
    {
      "inputs": [
        {
          "internalType": "bytes4",
          "name": "interfaceId",
          "type": "bytes4"
        }
      ],
      "name": "supportsInterface",
      "outputs": [
        {
          "internalType": "bool",
          "name": "",
          "type": "bool"
        }
      ],
      "stateMutability": "view",
      "type": "function"
    },
    {
      "inputs": [],
      "name": "symbol",
      "outputs": [
        {
          "internalType": "string",
          "name": "",
          "type": "string"
        }
      ],
      "stateMutability": "view",
      "type": "function"
    },
    {
      "inputs": [],
      "name": "tokenId",
      "outputs": [
        {
          "internalType": "uint256",
          "name": "",
          "type": "uint256"
        }
      ],
      "stateMutability": "view",
      "type": "function"
    },
    {
      "inputs": [
        {
          "internalType": "uint256",
          "name": "_tokenId",
          "type": "uint256"
        }
      ],
      "name": "tokenURI",
      "outputs": [
        {
          "internalType": "string",
          "name": "",
          "type": "string"
        }
      ],
      "stateMutability": "view",
      "type": "function"
    },
    {
      "inputs": [],
      "name": "totalSupply",
      "outputs": [
        {
          "internalType": "uint256",
          "name": "",
          "type": "uint256"
        }
      ],
      "stateMutability": "view",
      "type": "function"
    },
    {
      "inputs": [
        {
          "internalType": "address",
          "name": "from",
          "type": "address"
        },
        {
          "internalType": "address",
          "name": "to",
          "type": "address"
        },
        {
          "internalType": "uint256",
          "name": "tokenId",
          "type": "uint256"
        }
      ],
      "name": "transferFrom",
      "outputs": [],
      "stateMutability": "nonpayable",
      "type": "function"
    },
    {
      "inputs": [
        {
          "internalType": "bytes32[]",
          "name": "proof",
          "type": "bytes32[]"
        }
      ],
      "name": "verify",
      "outputs": [
        {
          "internalType": "bool",
          "name": "",
          "type": "bool"
        }
      ],
      "stateMutability": "view",
      "type": "function"
    },
    {
      "inputs": [
        {
          "internalType": "bytes32[]",
          "name": "_proof",
          "type": "bytes32[]"
        }
      ],
      "name": "whitelistMint",
      "outputs": [],
      "stateMutability": "payable",
      "type": "function"
    }
  ],
  "bytecode": {
    "object": "0x60806040526000600855600a60098190556305f5e1009055600b805460ff191660011790553480156200003157600080fd5b50604051806040016040528060058152602001644e4654656560d81b8152506040518060400160405280600381526020016213919560ea1b81525081600090816200007d91906200014c565b5060016200008c82826200014c565b5050600780546001600160a01b031916331790555062000218565b634e487b7160e01b600052604160045260246000fd5b600181811c90821680620000d257607f821691505b602082108103620000f357634e487b7160e01b600052602260045260246000fd5b50919050565b601f8211156200014757600081815260208120601f850160051c81016020861015620001225750805b601f850160051c820191505b8181101562000143578281556001016200012e565b5050505b505050565b81516001600160401b03811115620001685762000168620000a7565b6200018081620001798454620000bd565b84620000f9565b602080601f831160018114620001b857600084156200019f5750858301515b600019600386901b1c1916600185901b17855562000143565b600085815260208120601f198616915b82811015620001e957888601518255948401946001909101908401620001c8565b5085821015620002085787850151600019600388901b60f8161c191681555b5050505050600190811b01905550565b611d9980620002286000396000f3fe6080604052600436106101b75760003560e01c8063744197ce116100ec578063b88d4fde1161008a578063dab5f34011610064578063dab5f340146104c9578063e985e9c5146104e9578063eb39010f14610509578063ebf0c7171461052957600080fd5b8063b88d4fde14610481578063c46ebe71146104a1578063c87b56dd146104a957600080fd5b80638da5cb5b116100c65780638da5cb5b1461040c57806395d89b411461042c5780639761163814610441578063a22cb4651461046157600080fd5b8063744197ce146103855780637d9f6db51461039a578063888994c3146103f257600080fd5b806323b872dd116101595780634bd25c6f116101335780634bd25c6f146103105780636352211e146103255780636a99cacb1461034557806370a082311461036557600080fd5b806323b872dd146102bd578063372f657c146102dd57806342842e0e146102f057600080fd5b8063095ea7b311610195578063095ea7b31461024b57806317d70f7c1461026d57806318160ddd146102915780631efba6c2146102a757600080fd5b806301ffc9a7146101bc57806306fdde03146101f1578063081812fc14610213575b600080fd5b3480156101c857600080fd5b506101dc6101d7366004611673565b61053f565b60405190151581526020015b60405180910390f35b3480156101fd57600080fd5b50610206610591565b6040516101e891906116e0565b34801561021f57600080fd5b5061023361022e3660046116f3565b610623565b6040516001600160a01b0390911681526020016101e8565b34801561025757600080fd5b5061026b610266366004611728565b61064a565b005b34801561027957600080fd5b5061028360085481565b6040519081526020016101e8565b34801561029d57600080fd5b5061028360095481565b3480156102b357600080fd5b50610283600a5481565b3480156102c957600080fd5b5061026b6102d8366004611752565b610764565b61026b6102eb36600461178e565b610795565b3480156102fc57600080fd5b5061026b61030b366004611752565b6108eb565b34801561031c57600080fd5b50610283610906565b34801561033157600080fd5b506102336103403660046116f3565b6109cf565b34801561035157600080fd5b5061026b610360366004611803565b610a2f565b34801561037157600080fd5b50610283610380366004611846565b610a76565b34801561039157600080fd5b5061026b610afc565b3480156103a657600080fd5b50600d54600e54600f546010546011546012546103c595949392919086565b604080519687526020870195909552938501929092526060840152608083015260a082015260c0016101e8565b3480156103fe57600080fd5b50600b546101dc9060ff1681565b34801561041857600080fd5b50600754610233906001600160a01b031681565b34801561043857600080fd5b50610206610b32565b34801561044d57600080fd5b506101dc61045c3660046118a8565b610b41565b34801561046d57600080fd5b5061026b61047c36600461194e565b610b71565b34801561048d57600080fd5b5061026b61049c36600461198a565b610b80565b61026b610bb8565b3480156104b557600080fd5b506102066104c43660046116f3565b610c67565b3480156104d557600080fd5b5061026b6104e43660046116f3565b610d2e565b3480156104f557600080fd5b506101dc610504366004611a4a565b610d8d565b34801561051557600080fd5b5061026b610524366004611a7d565b610dbb565b34801561053557600080fd5b5061028360065481565b60006001600160e01b031982166380ac58cd60e01b148061057057506001600160e01b03198216635b5e139f60e01b145b8061058b57506301ffc9a760e01b6001600160e01b03198316145b92915050565b6060600080546105a090611a9f565b80601f01602080910402602001604051908101604052809291908181526020018280546105cc90611a9f565b80156106195780601f106105ee57610100808354040283529160200191610619565b820191906000526020600020905b8154815290600101906020018083116105fc57829003601f168201915b5050505050905090565b600061062e82610df0565b506000908152600460205260409020546001600160a01b031690565b6000610655826109cf565b9050806001600160a01b0316836001600160a01b0316036106c75760405162461bcd60e51b815260206004820152602160248201527f4552433732313a20617070726f76616c20746f2063757272656e74206f776e656044820152603960f91b60648201526084015b60405180910390fd5b336001600160a01b03821614806106e357506106e38133610d8d565b6107555760405162461bcd60e51b815260206004820152603d60248201527f4552433732313a20617070726f76652063616c6c6572206973206e6f7420746f60448201527f6b656e206f776e6572206f7220617070726f76656420666f7220616c6c00000060648201526084016106be565b61075f8383610e52565b505050565b61076e3382610ec0565b61078a5760405162461bcd60e51b81526004016106be90611ad9565b61075f838383610f1f565b818180806020026020016040519081016040528093929190818152602001838360200280828437600092019190915250506006546040516bffffffffffffffffffffffff193360601b16602082015261080b93508492506034015b60405160208183030381529060405280519060200120611083565b6108475760405162461bcd60e51b815260206004820152600d60248201526c24b73b30b634b210383937b7b360991b60448201526064016106be565b600854600954116108895760405162461bcd60e51b815260206004820152600c60248201526b6f7574206f662073746f636b60a01b60448201526064016106be565b600a543410156108ca5760405162461bcd60e51b815260206004820152600c60248201526b3cb7ba9030b932903837b7b960a11b60448201526064016106be565b600880549060006108da83611b3c565b919050555061075f33600854611099565b61075f83838360405180602001604052806000815250610b80565b6040805160c081018252600d54808252600e546020830152600f54928201929092526010546060820152601154608082015260125460a08201526000914210156109535760400151919050565b60208101518151600091906109689042611b55565b6109729190611b68565b90508160a00151811115610987575060a08101515b60808201516109969082611b8a565b8260400151116109aa5781606001516109c8565b60808201516109b99082611b8a565b82604001516109c89190611b55565b9250505090565b6000818152600260205260408120546001600160a01b03168061058b5760405162461bcd60e51b8152602060048201526018602482015277115490cdcc8c4e881a5b9d985b1a59081d1bdad95b88125160421b60448201526064016106be565b6007546001600160a01b03163314610a595760405162461bcd60e51b81526004016106be90611ba1565b600d95909555600e93909355600f91909155601055601155601255565b60006001600160a01b038216610ae05760405162461bcd60e51b815260206004820152602960248201527f4552433732313a2061646472657373207a65726f206973206e6f7420612076616044820152683634b21037bbb732b960b91b60648201526084016106be565b506001600160a01b031660009081526003602052604090205490565b6007546001600160a01b03163314610b265760405162461bcd60e51b81526004016106be90611ba1565b600b805460ff19169055565b6060600180546105a090611a9f565b6006546040516bffffffffffffffffffffffff193360601b16602082015260009161058b918491906034016107f0565b610b7c3383836110b3565b5050565b610b8a3383610ec0565b610ba65760405162461bcd60e51b81526004016106be90611ad9565b610bb284848484611181565b50505050565b610bc0610906565b341015610c025760405162461bcd60e51b815260206004820152601060248201526f6e6f7420656e6f7567682076616c756560801b60448201526064016106be565b60085460095411610c445760405162461bcd60e51b815260206004820152600c60248201526b6f7574206f662073746f636b60a01b60448201526064016106be565b60088054906000610c5483611b3c565b9190505550610c6533600854611099565b565b6060610c7282610df0565b600b5460ff1615610d1557604051602001610cff907f68747470733a2f2f676174657761792e70696e6174612e636c6f75642f69706681527f732f516d5858713458465653643379325a57514c444c363937766946725046666020820152704868653750545a6932435157666b38362f60781b60408201526518973539b7b760d11b605182015260570190565b6040516020818303038152906040529050919050565b610d1e826111b4565b604051602001610cff9190611bc8565b6007546001600160a01b03163314610d885760405162461bcd60e51b815260206004820152601760248201527f4f6e6c79206f776e65722063616e2073657420726f6f7400000000000000000060448201526064016106be565b600655565b6001600160a01b03918216600090815260056020908152604080832093909416825291909152205460ff1690565b6007546001600160a01b03163314610de55760405162461bcd60e51b81526004016106be90611ba1565b600991909155600a55565b6000818152600260205260409020546001600160a01b0316610e4f5760405162461bcd60e51b8152602060048201526018602482015277115490cdcc8c4e881a5b9d985b1a59081d1bdad95b88125160421b60448201526064016106be565b50565b600081815260046020526040902080546001600160a01b0319166001600160a01b0384169081179091558190610e87826109cf565b6001600160a01b03167f8c5be1e5ebec7d5bd14f71427d1e84f3dd0314c0f7b2291e5b200ac8c7c3b92560405160405180910390a45050565b600080610ecc836109cf565b9050806001600160a01b0316846001600160a01b03161480610ef35750610ef38185610d8d565b80610f175750836001600160a01b0316610f0c84610623565b6001600160a01b0316145b949350505050565b826001600160a01b0316610f32826109cf565b6001600160a01b031614610f585760405162461bcd60e51b81526004016106be90611c5c565b6001600160a01b038216610fba5760405162461bcd60e51b8152602060048201526024808201527f4552433732313a207472616e7366657220746f20746865207a65726f206164646044820152637265737360e01b60648201526084016106be565b826001600160a01b0316610fcd826109cf565b6001600160a01b031614610ff35760405162461bcd60e51b81526004016106be90611c5c565b600081815260046020908152604080832080546001600160a01b03199081169091556001600160a01b0387811680865260038552838620805460001901905590871680865283862080546001019055868652600290945282852080549092168417909155905184937fddf252ad1be2c89b69c2b068fc378daa952ba7f163c4a11628f55a4df523b3ef91a4505050565b6000826110908584611247565b14949350505050565b610b7c828260405180602001604052806000815250611294565b816001600160a01b0316836001600160a01b0316036111145760405162461bcd60e51b815260206004820152601960248201527f4552433732313a20617070726f766520746f2063616c6c65720000000000000060448201526064016106be565b6001600160a01b03838116600081815260056020908152604080832094871680845294825291829020805460ff191686151590811790915591519182527f17307eab39ab6107e8899845ad3d59bd9653f200f220920489ca2b5937696c31910160405180910390a3505050565b61118c848484610f1f565b611198848484846112c7565b610bb25760405162461bcd60e51b81526004016106be90611ca1565b606060006111c1836113c8565b600101905060008167ffffffffffffffff8111156111e1576111e1611861565b6040519080825280601f01601f19166020018201604052801561120b576020820181803683370190505b5090508181016020015b600019016f181899199a1a9b1b9c1cb0b131b232b360811b600a86061a8153600a850494508461121557509392505050565b600081815b845181101561128c576112788286838151811061126b5761126b611cf3565b60200260200101516114a0565b91508061128481611b3c565b91505061124c565b509392505050565b61129e83836114d2565b6112ab60008484846112c7565b61075f5760405162461bcd60e51b81526004016106be90611ca1565b60006001600160a01b0384163b156113bd57604051630a85bd0160e11b81526001600160a01b0385169063150b7a029061130b903390899088908890600401611d09565b6020604051808303816000875af1925050508015611346575060408051601f3d908101601f1916820190925261134391810190611d46565b60015b6113a3573d808015611374576040519150601f19603f3d011682016040523d82523d6000602084013e611379565b606091505b50805160000361139b5760405162461bcd60e51b81526004016106be90611ca1565b805181602001fd5b6001600160e01b031916630a85bd0160e11b149050610f17565b506001949350505050565b60008072184f03e93ff9f4daa797ed6e38ed64bf6a1f0160401b83106114075772184f03e93ff9f4daa797ed6e38ed64bf6a1f0160401b830492506040015b6d04ee2d6d415b85acef81000000008310611433576d04ee2d6d415b85acef8100000000830492506020015b662386f26fc10000831061145157662386f26fc10000830492506010015b6305f5e1008310611469576305f5e100830492506008015b612710831061147d57612710830492506004015b6064831061148f576064830492506002015b600a831061058b5760010192915050565b60008183106114bc5760008281526020849052604090206114cb565b60008381526020839052604090205b9392505050565b6001600160a01b0382166115285760405162461bcd60e51b815260206004820181905260248201527f4552433732313a206d696e7420746f20746865207a65726f206164647265737360448201526064016106be565b6000818152600260205260409020546001600160a01b03161561158d5760405162461bcd60e51b815260206004820152601c60248201527f4552433732313a20746f6b656e20616c7265616479206d696e7465640000000060448201526064016106be565b6000818152600260205260409020546001600160a01b0316156115f25760405162461bcd60e51b815260206004820152601c60248201527f4552433732313a20746f6b656e20616c7265616479206d696e7465640000000060448201526064016106be565b6001600160a01b038216600081815260036020908152604080832080546001019055848352600290915280822080546001600160a01b0319168417905551839291907fddf252ad1be2c89b69c2b068fc378daa952ba7f163c4a11628f55a4df523b3ef908290a45050565b6001600160e01b031981168114610e4f57600080fd5b60006020828403121561168557600080fd5b81356114cb8161165d565b60005b838110156116ab578181015183820152602001611693565b50506000910152565b600081518084526116cc816020860160208601611690565b601f01601f19169290920160200192915050565b6020815260006114cb60208301846116b4565b60006020828403121561170557600080fd5b5035919050565b80356001600160a01b038116811461172357600080fd5b919050565b6000806040838503121561173b57600080fd5b6117448361170c565b946020939093013593505050565b60008060006060848603121561176757600080fd5b6117708461170c565b925061177e6020850161170c565b9150604084013590509250925092565b600080602083850312156117a157600080fd5b823567ffffffffffffffff808211156117b957600080fd5b818501915085601f8301126117cd57600080fd5b8135818111156117dc57600080fd5b8660208260051b85010111156117f157600080fd5b60209290920196919550909350505050565b60008060008060008060c0878903121561181c57600080fd5b505084359660208601359650604086013595606081013595506080810135945060a0013592509050565b60006020828403121561185857600080fd5b6114cb8261170c565b634e487b7160e01b600052604160045260246000fd5b604051601f8201601f1916810167ffffffffffffffff811182821017156118a0576118a0611861565b604052919050565b600060208083850312156118bb57600080fd5b823567ffffffffffffffff808211156118d357600080fd5b818501915085601f8301126118e757600080fd5b8135818111156118f9576118f9611861565b8060051b915061190a848301611877565b818152918301840191848101908884111561192457600080fd5b938501935b8385101561194257843582529385019390850190611929565b98975050505050505050565b6000806040838503121561196157600080fd5b61196a8361170c565b91506020830135801515811461197f57600080fd5b809150509250929050565b600080600080608085870312156119a057600080fd5b6119a98561170c565b935060206119b881870161170c565b935060408601359250606086013567ffffffffffffffff808211156119dc57600080fd5b818801915088601f8301126119f057600080fd5b813581811115611a0257611a02611861565b611a14601f8201601f19168501611877565b91508082528984828501011115611a2a57600080fd5b808484018584013760008482840101525080935050505092959194509250565b60008060408385031215611a5d57600080fd5b611a668361170c565b9150611a746020840161170c565b90509250929050565b60008060408385031215611a9057600080fd5b50508035926020909101359150565b600181811c90821680611ab357607f821691505b602082108103611ad357634e487b7160e01b600052602260045260246000fd5b50919050565b6020808252602d908201527f4552433732313a2063616c6c6572206973206e6f7420746f6b656e206f776e6560408201526c1c881bdc88185c1c1c9bdd9959609a1b606082015260800190565b634e487b7160e01b600052601160045260246000fd5b600060018201611b4e57611b4e611b26565b5060010190565b8181038181111561058b5761058b611b26565b600082611b8557634e487b7160e01b600052601260045260246000fd5b500490565b808202811582820484141761058b5761058b611b26565b6020808252600d908201526c3737903832b936b4b9b9b4b7b760991b604082015260600190565b7f68747470733a2f2f676174657761792e70696e6174612e636c6f75642f69706681527f732f516d523865414b4c444c564a567535665071665142737a6d6d657a6d753160208201527063383142484b614d5764463846526a412f60781b604082015260008251611c40816051850160208701611690565b64173539b7b760d91b6051939091019283015250605601919050565b60208082526025908201527f4552433732313a207472616e736665722066726f6d20696e636f72726563742060408201526437bbb732b960d91b606082015260800190565b60208082526032908201527f4552433732313a207472616e7366657220746f206e6f6e20455243373231526560408201527131b2b4bb32b91034b6b83632b6b2b73a32b960711b606082015260800190565b634e487b7160e01b600052603260045260246000fd5b6001600160a01b0385811682528416602082015260408101839052608060608201819052600090611d3c908301846116b4565b9695505050505050565b600060208284031215611d5857600080fd5b81516114cb8161165d56fea2646970667358221220c227eb0f049453c3f936e37321ed327b550847ae1ee59e9d32fd3dd40059d71664736f6c63430008130033",
    "linkReferences": {}
  },
  "methodIdentifiers": {
    "approve(address,uint256)": "095ea7b3",
    "auction()": "7d9f6db5",
    "auctionMint()": "c46ebe71",
    "balanceOf(address)": "70a08231",
    "fixedPrice()": "1efba6c2",
    "getApproved(uint256)": "081812fc",
    "getAuctionPrice()": "4bd25c6f",
    "isApprovedForAll(address,address)": "e985e9c5",
    "isMystery()": "888994c3",
    "name()": "06fdde03",
    "openMystery()": "744197ce",
    "owner()": "8da5cb5b",
    "ownerOf(uint256)": "6352211e",
    "root()": "ebf0c717",
    "safeTransferFrom(address,address,uint256)": "42842e0e",
    "safeTransferFrom(address,address,uint256,bytes)": "b88d4fde",
    "setApprovalForAll(address,bool)": "a22cb465",
    "setAuction(uint256,uint256,uint256,uint256,uint256,uint256)": "6a99cacb",
    "setNFTSale(uint256,uint256)": "eb39010f",
    "setRoot(bytes32)": "dab5f340",
    "supportsInterface(bytes4)": "01ffc9a7",
    "symbol()": "95d89b41",
    "tokenId()": "17d70f7c",
    "tokenURI(uint256)": "c87b56dd",
    "totalSupply()": "18160ddd",
    "transferFrom(address,address,uint256)": "23b872dd",
    "verify(bytes32[])": "97611638",
    "whitelistMint(bytes32[])": "372f657c"
  },
  "id": 12
}