{
  "abi": [
    {
      "inputs": [
        {
          "internalType": "uint256",
          "name": "_maxSupply",
          "type": "uint256"
        },
        {
          "internalType": "uint256",
          "name": "_nftPrice",
          "type": "uint256"
        },
        {
          "internalType": "uint256",
          "name": "_maxPerWallet",
          "type": "uint256"
        },
        {
          "internalType": "contract IERC20",
          "name": "_token",
          "type": "address"
        }
      ],
      "stateMutability": "nonpayable",
      "type": "constructor"
    },
    {
      "anonymous": false,
      "inputs": [
        {
          "indexed": true,
          "internalType": "address",
          "name": "owner",
          "type": "address"
        },
        {
          "indexed": true,
          "internalType": "address",
          "name": "approved",
          "type": "address"
        },
        {
          "indexed": true,
          "internalType": "uint256",
          "name": "tokenId",
          "type": "uint256"
        }
      ],
      "name": "Approval",
      "type": "event"
    },
    {
      "anonymous": false,
      "inputs": [
        {
          "indexed": true,
          "internalType": "address",
          "name": "owner",
          "type": "address"
        },
        {
          "indexed": true,
          "internalType": "address",
          "name": "operator",
          "type": "address"
        },
        {
          "indexed": false,
          "internalType": "bool",
          "name": "approved",
          "type": "bool"
        }
      ],
      "name": "ApprovalForAll",
      "type": "event"
    },
    {
      "anonymous": false,
      "inputs": [
        {
          "indexed": false,
          "internalType": "uint256",
          "name": "_tokenId",
          "type": "uint256"
        },
        {
          "indexed": false,
          "internalType": "uint256",
          "name": "refundAmount",
          "type": "uint256"
        }
      ],
      "name": "Refund",
      "type": "event"
    },
    {
      "anonymous": false,
      "inputs": [
        {
          "indexed": true,
          "internalType": "address",
          "name": "from",
          "type": "address"
        },
        {
          "indexed": true,
          "internalType": "address",
          "name": "to",
          "type": "address"
        },
        {
          "indexed": true,
          "internalType": "uint256",
          "name": "tokenId",
          "type": "uint256"
        }
      ],
      "name": "Transfer",
      "type": "event"
    },
    {
      "inputs": [
        {
          "internalType": "address",
          "name": "to",
          "type": "address"
        },
        {
          "internalType": "uint256",
          "name": "tokenId",
          "type": "uint256"
        }
      ],
      "name": "approve",
      "outputs": [],
      "stateMutability": "nonpayable",
      "type": "function"
    },
    {
      "inputs": [],
      "name": "auction",
      "outputs": [
        {
          "internalType": "uint256",
          "name": "startTime",
          "type": "uint256"
        },
        {
          "internalType": "uint256",
          "name": "timeStep",
          "type": "uint256"
        },
        {
          "internalType": "uint256",
          "name": "startPrice",
          "type": "uint256"
        },
        {
          "internalType": "uint256",
          "name": "endPrice",
          "type": "uint256"
        },
        {
          "internalType": "uint256",
          "name": "priceStep",
          "type": "uint256"
        },
        {
          "internalType": "uint256",
          "name": "stepNumber",
          "type": "uint256"
        }
      ],
      "stateMutability": "view",
      "type": "function"
    },
    {
      "inputs": [
        {
          "internalType": "uint256",
          "name": "_mintAmount",
          "type": "uint256"
        }
      ],
      "name": "auctionmintNFT",
      "outputs": [],
      "stateMutability": "payable",
      "type": "function"
    },
    {
      "inputs": [
        {
          "internalType": "address",
          "name": "owner",
          "type": "address"
        }
      ],
      "name": "balanceOf",
      "outputs": [
        {
          "internalType": "uint256",
          "name": "",
          "type": "uint256"
        }
      ],
      "stateMutability": "view",
      "type": "function"
    },
    {
      "inputs": [
        {
          "internalType": "uint256",
          "name": "_mintAmount",
          "type": "uint256"
        }
      ],
      "name": "buyCallOption",
      "outputs": [],
      "stateMutability": "payable",
      "type": "function"
    },
    {
      "inputs": [
        {
          "internalType": "uint256",
          "name": "_mintAmount",
          "type": "uint256"
        }
      ],
      "name": "calculatePoint",
      "outputs": [
        {
          "internalType": "uint256",
          "name": "",
          "type": "uint256"
        }
      ],
      "stateMutability": "view",
      "type": "function"
    },
    {
      "inputs": [
        {
          "internalType": "uint256",
          "name": "_tokenId",
          "type": "uint256"
        }
      ],
      "name": "enterTicket",
      "outputs": [],
      "stateMutability": "nonpayable",
      "type": "function"
    },
    {
      "inputs": [
        {
          "internalType": "uint256",
          "name": "tokenId",
          "type": "uint256"
        }
      ],
      "name": "getApproved",
      "outputs": [
        {
          "internalType": "address",
          "name": "",
          "type": "address"
        }
      ],
      "stateMutability": "view",
      "type": "function"
    },
    {
      "inputs": [],
      "name": "getAuctionPrice",
      "outputs": [
        {
          "internalType": "uint256",
          "name": "",
          "type": "uint256"
        }
      ],
      "stateMutability": "view",
      "type": "function"
    },
    {
      "inputs": [],
      "name": "getCallOption",
      "outputs": [
        {
          "internalType": "uint256",
          "name": "",
          "type": "uint256"
        }
      ],
      "stateMutability": "view",
      "type": "function"
    },
    {
      "inputs": [
        {
          "internalType": "address",
          "name": "owner",
          "type": "address"
        },
        {
          "internalType": "address",
          "name": "operator",
          "type": "address"
        }
      ],
      "name": "isApprovedForAll",
      "outputs": [
        {
          "internalType": "bool",
          "name": "",
          "type": "bool"
        }
      ],
      "stateMutability": "view",
      "type": "function"
    },
    {
      "inputs": [],
      "name": "maxPerWallet",
      "outputs": [
        {
          "internalType": "uint256",
          "name": "",
          "type": "uint256"
        }
      ],
      "stateMutability": "view",
      "type": "function"
    },
    {
      "inputs": [],
      "name": "maxSupply",
      "outputs": [
        {
          "internalType": "uint256",
          "name": "",
          "type": "uint256"
        }
      ],
      "stateMutability": "view",
      "type": "function"
    },
    {
      "inputs": [],
      "name": "name",
      "outputs": [
        {
          "internalType": "string",
          "name": "",
          "type": "string"
        }
      ],
      "stateMutability": "view",
      "type": "function"
    },
    {
      "inputs": [],
      "name": "nextSaleNumber",
      "outputs": [
        {
          "internalType": "uint256",
          "name": "",
          "type": "uint256"
        }
      ],
      "stateMutability": "view",
      "type": "function"
    },
    {
      "inputs": [],
      "name": "nftPrice",
      "outputs": [
        {
          "internalType": "uint256",
          "name": "",
          "type": "uint256"
        }
      ],
      "stateMutability": "view",
      "type": "function"
    },
    {
      "inputs": [],
      "name": "nowSupply",
      "outputs": [
        {
          "internalType": "uint256",
          "name": "",
          "type": "uint256"
        }
      ],
      "stateMutability": "view",
      "type": "function"
    },
    {
      "inputs": [],
      "name": "owner",
      "outputs": [
        {
          "internalType": "address",
          "name": "",
          "type": "address"
        }
      ],
      "stateMutability": "view",
      "type": "function"
    },
    {
      "inputs": [
        {
          "internalType": "uint256",
          "name": "tokenId",
          "type": "uint256"
        }
      ],
      "name": "ownerOf",
      "outputs": [
        {
          "internalType": "address",
          "name": "",
          "type": "address"
        }
      ],
      "stateMutability": "view",
      "type": "function"
    },
    {
      "inputs": [
        {
          "internalType": "address",
          "name": "",
          "type": "address"
        }
      ],
      "name": "pointBalances",
      "outputs": [
        {
          "internalType": "uint256",
          "name": "",
          "type": "uint256"
        }
      ],
      "stateMutability": "view",
      "type": "function"
    },
    {
      "inputs": [
        {
          "internalType": "uint256",
          "name": "_tokenId",
          "type": "uint256"
        }
      ],
      "name": "refund",
      "outputs": [],
      "stateMutability": "payable",
      "type": "function"
    },
    {
      "inputs": [
        {
          "internalType": "address",
          "name": "from",
          "type": "address"
        },
        {
          "internalType": "address",
          "name": "to",
          "type": "address"
        },
        {
          "internalType": "uint256",
          "name": "tokenId",
          "type": "uint256"
        }
      ],
      "name": "safeTransferFrom",
      "outputs": [],
      "stateMutability": "nonpayable",
      "type": "function"
    },
    {
      "inputs": [
        {
          "internalType": "address",
          "name": "from",
          "type": "address"
        },
        {
          "internalType": "address",
          "name": "to",
          "type": "address"
        },
        {
          "internalType": "uint256",
          "name": "tokenId",
          "type": "uint256"
        },
        {
          "internalType": "bytes",
          "name": "data",
          "type": "bytes"
        }
      ],
      "name": "safeTransferFrom",
      "outputs": [],
      "stateMutability": "nonpayable",
      "type": "function"
    },
    {
      "inputs": [
        {
          "internalType": "address",
          "name": "operator",
          "type": "address"
        },
        {
          "internalType": "bool",
          "name": "approved",
          "type": "bool"
        }
      ],
      "name": "setApprovalForAll",
      "outputs": [],
      "stateMutability": "nonpayable",
      "type": "function"
    },
    {
      "inputs": [
        {
          "internalType": "uint256",
          "name": "_startTime",
          "type": "uint256"
        },
        {
          "internalType": "uint256",
          "name": "_timeStep",
          "type": "uint256"
        },
        {
          "internalType": "uint256",
          "name": "_endPrice",
          "type": "uint256"
        },
        {
          "internalType": "uint256",
          "name": "_priceStep",
          "type": "uint256"
        },
        {
          "internalType": "uint256",
          "name": "_stepNumber",
          "type": "uint256"
        }
      ],
      "name": "setAuction",
      "outputs": [],
      "stateMutability": "nonpayable",
      "type": "function"
    },
    {
      "inputs": [
        {
          "internalType": "bytes4",
          "name": "interfaceId",
          "type": "bytes4"
        }
      ],
      "name": "supportsInterface",
      "outputs": [
        {
          "internalType": "bool",
          "name": "",
          "type": "bool"
        }
      ],
      "stateMutability": "view",
      "type": "function"
    },
    {
      "inputs": [],
      "name": "symbol",
      "outputs": [
        {
          "internalType": "string",
          "name": "",
          "type": "string"
        }
      ],
      "stateMutability": "view",
      "type": "function"
    },
    {
      "inputs": [
        {
          "internalType": "uint256",
          "name": "",
          "type": "uint256"
        }
      ],
      "name": "ticketUsed",
      "outputs": [
        {
          "internalType": "bool",
          "name": "",
          "type": "bool"
        }
      ],
      "stateMutability": "view",
      "type": "function"
    },
    {
      "inputs": [],
      "name": "token",
      "outputs": [
        {
          "internalType": "contract IERC20",
          "name": "",
          "type": "address"
        }
      ],
      "stateMutability": "view",
      "type": "function"
    },
    {
      "inputs": [
        {
          "internalType": "uint256",
          "name": "_tokenId",
          "type": "uint256"
        }
      ],
      "name": "tokenURI",
      "outputs": [
        {
          "internalType": "string",
          "name": "",
          "type": "string"
        }
      ],
      "stateMutability": "view",
      "type": "function"
    },
    {
      "inputs": [
        {
          "internalType": "address",
          "name": "from",
          "type": "address"
        },
        {
          "internalType": "address",
          "name": "to",
          "type": "address"
        },
        {
          "internalType": "uint256",
          "name": "tokenId",
          "type": "uint256"
        }
      ],
      "name": "transferFrom",
      "outputs": [],
      "stateMutability": "nonpayable",
      "type": "function"
    },
    {
      "inputs": [
        {
          "internalType": "uint256",
          "name": "_tokenId",
          "type": "uint256"
        }
      ],
      "name": "used_Ticket",
      "outputs": [
        {
          "internalType": "bool",
          "name": "",
          "type": "bool"
        }
      ],
      "stateMutability": "view",
      "type": "function"
    },
    {
      "inputs": [],
      "name": "withdraw",
      "outputs": [],
      "stateMutability": "payable",
      "type": "function"
    }
  ],
  "bytecode": {
    "object": "0x60806040526000600a556000600d553480156200001b57600080fd5b50604051620021d2380380620021d28339810160408190526200003e91620000e4565b6040518060400160405280600b81526020016a109d5e5b59551a58dad95d60aa1b81525060405180604001604052806003815260200162109b5560ea1b81525081600090816200008f9190620001da565b5060016200009e8282620001da565b50505060089390935560099190915560078054336001600160a01b031991821617909155600680549091166001600160a01b0390931692909217909155600c55620002a6565b60008060008060808587031215620000fb57600080fd5b845160208601516040870151606088015192965090945092506001600160a01b03811681146200012a57600080fd5b939692955090935050565b634e487b7160e01b600052604160045260246000fd5b600181811c908216806200016057607f821691505b6020821081036200018157634e487b7160e01b600052602260045260246000fd5b50919050565b601f821115620001d557600081815260208120601f850160051c81016020861015620001b05750805b601f850160051c820191505b81811015620001d157828155600101620001bc565b5050505b505050565b81516001600160401b03811115620001f657620001f662000135565b6200020e816200020784546200014b565b8462000187565b602080601f8311600181146200024657600084156200022d5750858301515b600019600386901b1c1916600185901b178555620001d1565b600085815260208120601f198616915b82811015620002775788860151825594840194600190910190840162000256565b5085821015620002965787850151600019600388901b60f8161c191681555b5050505050600190811b01905550565b611f1c80620002b66000396000f3fe6080604052600436106101ee5760003560e01c80637cf2bf211161010d578063b88d4fde116100a0578063d27ef04f1161006f578063d27ef04f146105a9578063d5abeb01146105bc578063d811191b146105d2578063e985e9c5146105e5578063fc0c546a1461060557600080fd5b8063b88d4fde1461053e578063baa2b6961461055e578063c3b8f61c14610574578063c87b56dd1461058957600080fd5b806395d89b41116100dc57806395d89b41146104b9578063a22cb465146104ce578063a7aad84c146104ee578063b100f52e1461050e57600080fd5b80637cf2bf211461040b5780637d9f6db51461042b5780637e66f15f146104835780638da5cb5b1461049957600080fd5b80633ccfd60b116101855780636352211e116101545780636352211e1461037b578063642b5f9b1461039b57806370a08231146103cb57806374742680146103eb57600080fd5b80633ccfd60b1461032857806342842e0e14610330578063453c2310146103505780634bd25c6f1461036657600080fd5b80630d39fc81116101c15780630d39fc81146102a457806323b872dd146102c8578063278ecde1146102e857806327f30a08146102fb57600080fd5b806301ffc9a7146101f357806306fdde0314610228578063081812fc1461024a578063095ea7b314610282575b600080fd5b3480156101ff57600080fd5b5061021361020e366004611901565b610625565b60405190151581526020015b60405180910390f35b34801561023457600080fd5b5061023d610677565b60405161021f9190611975565b34801561025657600080fd5b5061026a610265366004611988565b610709565b6040516001600160a01b03909116815260200161021f565b34801561028e57600080fd5b506102a261029d3660046119bd565b610730565b005b3480156102b057600080fd5b506102ba60095481565b60405190815260200161021f565b3480156102d457600080fd5b506102a26102e33660046119e7565b61084a565b6102a26102f6366004611988565b61087b565b34801561030757600080fd5b506102ba610316366004611a23565b600e6020526000908152604090205481565b6102a2610a68565b34801561033c57600080fd5b506102a261034b3660046119e7565b610afd565b34801561035c57600080fd5b506102ba600c5481565b34801561037257600080fd5b506102ba610b18565b34801561038757600080fd5b5061026a610396366004611988565b610be1565b3480156103a757600080fd5b506102136103b6366004611988565b600f6020526000908152604090205460ff1681565b3480156103d757600080fd5b506102ba6103e6366004611a23565b610c41565b3480156103f757600080fd5b506102ba610406366004611988565b610cc7565b34801561041757600080fd5b506102a2610426366004611a3e565b610d15565b34801561043757600080fd5b5060105460115460125460135460145460155461045695949392919086565b604080519687526020870195909552938501929092526060840152608083015260a082015260c00161021f565b34801561048f57600080fd5b506102ba600a5481565b3480156104a557600080fd5b5060075461026a906001600160a01b031681565b3480156104c557600080fd5b5061023d610d7c565b3480156104da57600080fd5b506102a26104e9366004611a79565b610d8b565b3480156104fa57600080fd5b506102a2610509366004611988565b610d9a565b34801561051a57600080fd5b50610213610529366004611988565b6000908152600f602052604090205460ff1690565b34801561054a57600080fd5b506102a2610559366004611acb565b610e5a565b34801561056a57600080fd5b506102ba600d5481565b34801561058057600080fd5b506102ba610e92565b34801561059557600080fd5b5061023d6105a4366004611988565b610ed0565b6102a26105b7366004611988565b610f38565b3480156105c857600080fd5b506102ba60085481565b6102a26105e0366004611988565b6110eb565b3480156105f157600080fd5b50610213610600366004611ba7565b61113a565b34801561061157600080fd5b5060065461026a906001600160a01b031681565b60006001600160e01b031982166380ac58cd60e01b148061065657506001600160e01b03198216635b5e139f60e01b145b8061067157506301ffc9a760e01b6001600160e01b03198316145b92915050565b60606000805461068690611bda565b80601f01602080910402602001604051908101604052809291908181526020018280546106b290611bda565b80156106ff5780601f106106d4576101008083540402835291602001916106ff565b820191906000526020600020905b8154815290600101906020018083116106e257829003601f168201915b5050505050905090565b600061071482611168565b506000908152600460205260409020546001600160a01b031690565b600061073b82610be1565b9050806001600160a01b0316836001600160a01b0316036107ad5760405162461bcd60e51b815260206004820152602160248201527f4552433732313a20617070726f76616c20746f2063757272656e74206f776e656044820152603960f91b60648201526084015b60405180910390fd5b336001600160a01b03821614806107c957506107c9813361113a565b61083b5760405162461bcd60e51b815260206004820152603d60248201527f4552433732313a20617070726f76652063616c6c6572206973206e6f7420746f60448201527f6b656e206f776e6572206f7220617070726f76656420666f7220616c6c00000060648201526084016107a4565b61084583836111c7565b505050565b6108543382611235565b6108705760405162461bcd60e51b81526004016107a490611c14565b610845838383611293565b6000818152600260205260409020546001600160a01b03166108df5760405162461bcd60e51b815260206004820152601a60248201527f455243373231413a206e6f6e6578697374656e7420746f6b656e00000000000060448201526064016107a4565b6108e881610be1565b6001600160a01b0316336001600160a01b03161461095d5760405162461bcd60e51b815260206004820152602c60248201527f455243373231413a206f6e6c7920746f6b656e206f776e65722063616e20726560448201526b1c5d595cdd081c99599d5b9960a21b60648201526084016107a4565b6000600a610969610b18565b610974906009611c77565b61097e9190611c8e565b9050804710156109df5760405162461bcd60e51b815260206004820152602660248201527f455243373231413a20696e73756666696369656e742066756e647320666f72206044820152651c99599d5b9960d21b60648201526084016107a4565b6109e8826112f8565b600d80549060006109f883611cb0565b9091555050604051339082156108fc029083906000818181858888f19350505050158015610a2a573d6000803e3d6000fd5b5060408051838152602081018390527f5eee8032448a7f1556f67b8a76a4dcfd75ff98c05198df9f420467d0a1234e38910160405180910390a15050565b6007546001600160a01b03163314610ace5760405162461bcd60e51b8152602060048201526024808201527f4f6e6c792074686520636f6e7472616374206f776e65722063616e20776974686044820152636472617760e01b60648201526084016107a4565b60405133904780156108fc02916000818181858888f19350505050158015610afa573d6000803e3d6000fd5b50565b61084583838360405180602001604052806000815250610e5a565b6040805160c0810182526010548082526011546020830152601254928201929092526013546060820152601454608082015260155460a0820152600091421015610b655760400151919050565b6020810151815160009190610b7a9042611cc9565b610b849190611c8e565b90508160a00151811115610b99575060a08101515b6080820151610ba89082611c77565b826040015111610bbc578160600151610bda565b6080820151610bcb9082611c77565b8260400151610bda9190611cc9565b9250505090565b6000818152600260205260408120546001600160a01b0316806106715760405162461bcd60e51b8152602060048201526018602482015277115490cdcc8c4e881a5b9d985b1a59081d1bdad95b88125160421b60448201526064016107a4565b60006001600160a01b038216610cab5760405162461bcd60e51b815260206004820152602960248201527f4552433732313a2061646472657373207a65726f206973206e6f7420612076616044820152683634b21037bbb732b960b91b60648201526084016107a4565b506001600160a01b031660009081526003602052604090205490565b600080610cd333610c41565b90506000600284610ce48483611c77565b610cef876001611cdc565b610cf99190611cdc565b610d039190611c77565b610d0d9190611c8e565b949350505050565b6007546001600160a01b03163314610d5f5760405162461bcd60e51b815260206004820152600d60248201526c3737903832b936b4b9b9b4b7b760991b60448201526064016107a4565b601094909455601192909255600954601255601355601455601555565b60606001805461068690611bda565b610d9633838361138d565b5050565b6007546001600160a01b03163314610de45760405162461bcd60e51b815260206004820152600d60248201526c3737903832b936b4b9b9b4b7b760991b60448201526064016107a4565b6000818152600260205260409020546001600160a01b0316610e3f5760405162461bcd60e51b8152602060048201526014602482015273151bdad95b88191bd95cc81b9bdd08195e1a5cdd60621b60448201526064016107a4565b6000908152600f60205260409020805460ff19166001179055565b610e643383611235565b610e805760405162461bcd60e51b81526004016107a490611c14565b610e8c8484848461145b565b50505050565b600066b1a2bc2ec5000033311015610ebc5760405162461bcd60e51b81526004016107a490611cef565b50336000908152600e602052604090205490565b6060610edb82611168565b6000828152600f602052604090205460ff1615610f2057610efa61148e565b604051602001610f0a9190611d34565b6040516020818303038152906040529050919050565b610f2861148e565b604051602001610f0a9190611d75565b66b1a2bc2ec5000033311015610f605760405162461bcd60e51b81526004016107a490611cef565b610f6933610c41565b610f739082611cdc565b610f7b610e92565b1015610fc15760405162461bcd60e51b8152602060048201526015602482015274109d5e4818d85b1b081bdc1d1a5bdb88199a5c9cdd605a1b60448201526064016107a4565b600c5481610fce33610c41565b610fd89190611cdc565b11156110265760405162461bcd60e51b815260206004820152601760248201527f657863656564206d61782077616c6c6574206c696d697400000000000000000060448201526064016107a4565b6000611030610b18565b61103a9083611c77565b905060085482600a5461104d9190611cdc565b11156110865760405162461bcd60e51b81526020600482015260086024820152671cdbdb19081bdd5d60c21b60448201526064016107a4565b60005b82811015610845576000600a5460016110a29190611cdc565b600a805491925060006110b483611cb0565b91905055506110c333826114ae565b6000908152600f60205260409020805460ff19169055806110e381611cb0565b915050611089565b66b1a2bc2ec50000333110156111135760405162461bcd60e51b81526004016107a490611cef565b336000908152600e602052604081208054839290611132908490611cdc565b909155505050565b6001600160a01b03918216600090815260056020908152604080832093909416825291909152205460ff1690565b6000818152600260205260409020546001600160a01b0316610afa5760405162461bcd60e51b8152602060048201526018602482015277115490cdcc8c4e881a5b9d985b1a59081d1bdad95b88125160421b60448201526064016107a4565b600081815260046020526040902080546001600160a01b0319166001600160a01b03841690811790915581906111fc82610be1565b6001600160a01b03167f8c5be1e5ebec7d5bd14f71427d1e84f3dd0314c0f7b2291e5b200ac8c7c3b92560405160405180910390a45050565b60008061124183610be1565b9050806001600160a01b0316846001600160a01b031614806112685750611268818561113a565b80610d0d5750836001600160a01b031661128184610709565b6001600160a01b031614949350505050565b6007546001600160a01b031633146112ed5760405162461bcd60e51b815260206004820152601760248201527f5472616e73666572206e6f7420617574686f72697a656400000000000000000060448201526064016107a4565b6108458383836114c8565b600061130382610be1565b905061130e82610be1565b600083815260046020908152604080832080546001600160a01b03199081169091556001600160a01b0385168085526003845282852080546000190190558785526002909352818420805490911690555192935084927fddf252ad1be2c89b69c2b068fc378daa952ba7f163c4a11628f55a4df523b3ef908390a45050565b816001600160a01b0316836001600160a01b0316036113ee5760405162461bcd60e51b815260206004820152601960248201527f4552433732313a20617070726f766520746f2063616c6c65720000000000000060448201526064016107a4565b6001600160a01b03838116600081815260056020908152604080832094871680845294825291829020805460ff191686151590811790915591519182527f17307eab39ab6107e8899845ad3d59bd9653f200f220920489ca2b5937696c31910160405180910390a3505050565b611466848484611293565b6114728484848461162c565b610e8c5760405162461bcd60e51b81526004016107a490611da4565b6060604051806080016040528060518152602001611e9660519139905090565b610d9682826040518060200160405280600081525061172d565b826001600160a01b03166114db82610be1565b6001600160a01b0316146115015760405162461bcd60e51b81526004016107a490611df6565b6001600160a01b0382166115635760405162461bcd60e51b8152602060048201526024808201527f4552433732313a207472616e7366657220746f20746865207a65726f206164646044820152637265737360e01b60648201526084016107a4565b826001600160a01b031661157682610be1565b6001600160a01b03161461159c5760405162461bcd60e51b81526004016107a490611df6565b600081815260046020908152604080832080546001600160a01b03199081169091556001600160a01b0387811680865260038552838620805460001901905590871680865283862080546001019055868652600290945282852080549092168417909155905184937fddf252ad1be2c89b69c2b068fc378daa952ba7f163c4a11628f55a4df523b3ef91a4505050565b60006001600160a01b0384163b1561172257604051630a85bd0160e11b81526001600160a01b0385169063150b7a0290611670903390899088908890600401611e3b565b6020604051808303816000875af19250505080156116ab575060408051601f3d908101601f191682019092526116a891810190611e78565b60015b611708573d8080156116d9576040519150601f19603f3d011682016040523d82523d6000602084013e6116de565b606091505b5080516000036117005760405162461bcd60e51b81526004016107a490611da4565b805181602001fd5b6001600160e01b031916630a85bd0160e11b149050610d0d565b506001949350505050565b6117378383611760565b611744600084848461162c565b6108455760405162461bcd60e51b81526004016107a490611da4565b6001600160a01b0382166117b65760405162461bcd60e51b815260206004820181905260248201527f4552433732313a206d696e7420746f20746865207a65726f206164647265737360448201526064016107a4565b6000818152600260205260409020546001600160a01b03161561181b5760405162461bcd60e51b815260206004820152601c60248201527f4552433732313a20746f6b656e20616c7265616479206d696e7465640000000060448201526064016107a4565b6000818152600260205260409020546001600160a01b0316156118805760405162461bcd60e51b815260206004820152601c60248201527f4552433732313a20746f6b656e20616c7265616479206d696e7465640000000060448201526064016107a4565b6001600160a01b038216600081815260036020908152604080832080546001019055848352600290915280822080546001600160a01b0319168417905551839291907fddf252ad1be2c89b69c2b068fc378daa952ba7f163c4a11628f55a4df523b3ef908290a45050565b6001600160e01b031981168114610afa57600080fd5b60006020828403121561191357600080fd5b813561191e816118eb565b9392505050565b60005b83811015611940578181015183820152602001611928565b50506000910152565b60008151808452611961816020860160208601611925565b601f01601f19169290920160200192915050565b60208152600061191e6020830184611949565b60006020828403121561199a57600080fd5b5035919050565b80356001600160a01b03811681146119b857600080fd5b919050565b600080604083850312156119d057600080fd5b6119d9836119a1565b946020939093013593505050565b6000806000606084860312156119fc57600080fd5b611a05846119a1565b9250611a13602085016119a1565b9150604084013590509250925092565b600060208284031215611a3557600080fd5b61191e826119a1565b600080600080600060a08688031215611a5657600080fd5b505083359560208501359550604085013594606081013594506080013592509050565b60008060408385031215611a8c57600080fd5b611a95836119a1565b915060208301358015158114611aaa57600080fd5b809150509250929050565b634e487b7160e01b600052604160045260246000fd5b60008060008060808587031215611ae157600080fd5b611aea856119a1565b9350611af8602086016119a1565b925060408501359150606085013567ffffffffffffffff80821115611b1c57600080fd5b818701915087601f830112611b3057600080fd5b813581811115611b4257611b42611ab5565b604051601f8201601f19908116603f01168101908382118183101715611b6a57611b6a611ab5565b816040528281528a6020848701011115611b8357600080fd5b82602086016020830137600060208483010152809550505050505092959194509250565b60008060408385031215611bba57600080fd5b611bc3836119a1565b9150611bd1602084016119a1565b90509250929050565b600181811c90821680611bee57607f821691505b602082108103611c0e57634e487b7160e01b600052602260045260246000fd5b50919050565b6020808252602d908201527f4552433732313a2063616c6c6572206973206e6f7420746f6b656e206f776e6560408201526c1c881bdc88185c1c1c9bdd9959609a1b606082015260800190565b634e487b7160e01b600052601160045260246000fd5b808202811582820484141761067157610671611c61565b600082611cab57634e487b7160e01b600052601260045260246000fd5b500490565b600060018201611cc257611cc2611c61565b5060010190565b8181038181111561067157610671611c61565b8082018082111561067157610671611c61565b60208082526025908201527f706c6561736520616464206d6f7265206d6f6e657920746f20796f757220616360408201526418dbdd5b9d60da1b606082015260800190565b60008251611d46818460208701611925565b7f636f6d6d656d6f7261746976655f7469636b65742e6a736f6e00000000000000920191825250601901919050565b60008251611d87818460208701611925565b6a3a34b1b5b2ba173539b7b760a91b920191825250600b01919050565b60208082526032908201527f4552433732313a207472616e7366657220746f206e6f6e20455243373231526560408201527131b2b4bb32b91034b6b83632b6b2b73a32b960711b606082015260800190565b60208082526025908201527f4552433732313a207472616e736665722066726f6d20696e636f72726563742060408201526437bbb732b960d91b606082015260800190565b6001600160a01b0385811682528416602082015260408101839052608060608201819052600090611e6e90830184611949565b9695505050505050565b600060208284031215611e8a57600080fd5b815161191e816118eb56fe68747470733a2f2f676174657761792e70696e6174612e636c6f75642f697066732f516d64447a4c345262324a4c634a645150744e75434a535a3554545a4b77594a5862626a7971567134396979794c2fa2646970667358221220479f291124e6fbe39b337b70548ddd1627ffed005064918b953f6e277a2c8d2764736f6c63430008130033",
    "linkReferences": {}
  },
  "methodIdentifiers": {
    "approve(address,uint256)": "095ea7b3",
    "auction()": "7d9f6db5",
    "auctionmintNFT(uint256)": "d27ef04f",
    "balanceOf(address)": "70a08231",
    "buyCallOption(uint256)": "d811191b",
    "calculatePoint(uint256)": "74742680",
    "enterTicket(uint256)": "a7aad84c",
    "getApproved(uint256)": "081812fc",
    "getAuctionPrice()": "4bd25c6f",
    "getCallOption()": "c3b8f61c",
    "isApprovedForAll(address,address)": "e985e9c5",
    "maxPerWallet()": "453c2310",
    "maxSupply()": "d5abeb01",
    "name()": "06fdde03",
    "nextSaleNumber()": "baa2b696",
    "nftPrice()": "0d39fc81",
    "nowSupply()": "7e66f15f",
    "owner()": "8da5cb5b",
    "ownerOf(uint256)": "6352211e",
    "pointBalances(address)": "27f30a08",
    "refund(uint256)": "278ecde1",
    "safeTransferFrom(address,address,uint256)": "42842e0e",
    "safeTransferFrom(address,address,uint256,bytes)": "b88d4fde",
    "setApprovalForAll(address,bool)": "a22cb465",
    "setAuction(uint256,uint256,uint256,uint256,uint256)": "7cf2bf21",
    "supportsInterface(bytes4)": "01ffc9a7",
    "symbol()": "95d89b41",
    "ticketUsed(uint256)": "642b5f9b",
    "token()": "fc0c546a",
    "tokenURI(uint256)": "c87b56dd",
    "transferFrom(address,address,uint256)": "23b872dd",
    "used_Ticket(uint256)": "b100f52e",
    "withdraw()": "3ccfd60b"
  },
  "id": 29
}