{
  "abi": [
    {
      "inputs": [],
      "stateMutability": "nonpayable",
      "type": "constructor"
    },
    {
      "inputs": [
        {
          "internalType": "string",
          "name": "todo",
          "type": "string"
        }
      ],
      "name": "addTodo",
      "outputs": [],
      "stateMutability": "nonpayable",
      "type": "function"
    },
    {
      "inputs": [
        {
          "internalType": "uint256",
          "name": "index",
          "type": "uint256"
        }
      ],
      "name": "deleteTodo",
      "outputs": [],
      "stateMutability": "nonpayable",
      "type": "function"
    },
    {
      "inputs": [],
      "name": "getAllCompleted",
      "outputs": [
        {
          "internalType": "string[]",
          "name": "",
          "type": "string[]"
        }
      ],
      "stateMutability": "view",
      "type": "function"
    },
    {
      "inputs": [],
      "name": "getAllTodo",
      "outputs": [
        {
          "internalType": "string[]",
          "name": "",
          "type": "string[]"
        }
      ],
      "stateMutability": "view",
      "type": "function"
    },
    {
      "inputs": [
        {
          "internalType": "uint256",
          "name": "index",
          "type": "uint256"
        }
      ],
      "name": "getCompleted",
      "outputs": [
        {
          "internalType": "string",
          "name": "",
          "type": "string"
        }
      ],
      "stateMutability": "view",
      "type": "function"
    },
    {
      "inputs": [
        {
          "internalType": "uint256",
          "name": "index",
          "type": "uint256"
        }
      ],
      "name": "getTodo",
      "outputs": [
        {
          "internalType": "string",
          "name": "",
          "type": "string"
        }
      ],
      "stateMutability": "view",
      "type": "function"
    },
    {
      "inputs": [
        {
          "internalType": "uint256",
          "name": "index",
          "type": "uint256"
        }
      ],
      "name": "setCompleted",
      "outputs": [],
      "stateMutability": "nonpayable",
      "type": "function"
    },
    {
      "inputs": [
        {
          "internalType": "uint256",
          "name": "",
          "type": "uint256"
        }
      ],
      "name": "todoCompleted",
      "outputs": [
        {
          "internalType": "string",
          "name": "",
          "type": "string"
        }
      ],
      "stateMutability": "view",
      "type": "function"
    },
    {
      "inputs": [
        {
          "internalType": "uint256",
          "name": "",
          "type": "uint256"
        }
      ],
      "name": "todos",
      "outputs": [
        {
          "internalType": "string",
          "name": "",
          "type": "string"
        }
      ],
      "stateMutability": "view",
      "type": "function"
    }
  ],
  "bytecode": {
    "object": "0x608060405234801561001057600080fd5b50610b80806100206000396000f3fe608060405234801561001057600080fd5b50600436106100935760003560e01c8063bc8bc2b411610066578063bc8bc2b4146100fe578063dd68afb614610111578063e29672ba14610124578063fdacd5761461012c578063fe1c7f6f1461013f57600080fd5b80631bfc269b146100985780636e3c6738146100c157806395ffebf5146100d6578063982abb89146100e9575b600080fd5b6100ab6100a63660046106fe565b610152565b6040516100b8919061075d565b60405180910390f35b6100d46100cf3660046106fe565b610201565b005b6100d46100e436600461078d565b61022d565b6100f161026a565b6040516100b8919061083e565b6100ab61010c3660046106fe565b610343565b6100ab61011f3660046106fe565b6103ef565b6100f1610404565b6100d461013a3660046106fe565b6104d4565b6100ab61014d3660046106fe565b6106a0565b606060018281548110610167576101676108a0565b90600052602060002001805461017c906108b6565b80601f01602080910402602001604051908101604052809291908181526020018280546101a8906108b6565b80156101f55780601f106101ca576101008083540402835291602001916101f5565b820191906000526020600020905b8154815290600101906020018083116101d857829003601f168201915b50505050509050919050565b60008181548110610214576102146108a0565b90600052602060002001600061022a91906106b0565b50565b600080546001810182559080527f290decd9548b62a8d60345a988386fc84ba6bc95484008f6362f93160ef3e56301610266828261093e565b5050565b60606000805480602002602001604051908101604052809291908181526020016000905b8282101561033a5783829060005260206000200180546102ad906108b6565b80601f01602080910402602001604051908101604052809291908181526020018280546102d9906108b6565b80156103265780601f106102fb57610100808354040283529160200191610326565b820191906000526020600020905b81548152906001019060200180831161030957829003601f168201915b50505050508152602001906001019061028e565b50505050905090565b6000818154811061035357600080fd5b90600052602060002001600091509050805461036e906108b6565b80601f016020809104026020016040519081016040528092919081815260200182805461039a906108b6565b80156103e75780601f106103bc576101008083540402835291602001916103e7565b820191906000526020600020905b8154815290600101906020018083116103ca57829003601f168201915b505050505081565b606060008281548110610167576101676108a0565b60606001805480602002602001604051908101604052809291908181526020016000905b8282101561033a578382906000526020600020018054610447906108b6565b80601f0160208091040260200160405190810160405280929190818152602001828054610473906108b6565b80156104c05780601f10610495576101008083540402835291602001916104c0565b820191906000526020600020905b8154815290600101906020018083116104a357829003601f168201915b505050505081526020019060010190610428565b60008082815481106104e8576104e86108a0565b9060005260206000200180546104fd906108b6565b80601f0160208091040260200160405190810160405280929190818152602001828054610529906108b6565b80156105765780601f1061054b57610100808354040283529160200191610576565b820191906000526020600020905b81548152906001019060200180831161055957829003601f168201915b509394508593505050505b60005461059090600190610a14565b8110156105fa5760006105a4826001610a2d565b815481106105b4576105b46108a0565b90600052602060002001600082815481106105d1576105d16108a0565b9060005260206000200190816105e79190610a40565b50806105f281610b1b565b915050610581565b506000805461060b90600190610a14565b8154811061061b5761061b6108a0565b90600052602060002001600061063191906106b0565b600080548061064257610642610b34565b60019003818190600052602060002001600061065e91906106b0565b90556001805480820182556000919091527fb10e2d527612073b26eecdfd717e6a320cf44b4afac2b0732d9fcbe2b7fa0cf60161069b828261093e565b505050565b6001818154811061035357600080fd5b5080546106bc906108b6565b6000825580601f106106cc575050565b601f01602090049060005260206000209081019061022a91905b808211156106fa57600081556001016106e6565b5090565b60006020828403121561071057600080fd5b5035919050565b6000815180845260005b8181101561073d57602081850181015186830182015201610721565b506000602082860101526020601f19601f83011685010191505092915050565b6020815260006107706020830184610717565b9392505050565b634e487b7160e01b600052604160045260246000fd5b60006020828403121561079f57600080fd5b813567ffffffffffffffff808211156107b757600080fd5b818401915084601f8301126107cb57600080fd5b8135818111156107dd576107dd610777565b604051601f8201601f19908116603f0116810190838211818310171561080557610805610777565b8160405282815287602084870101111561081e57600080fd5b826020860160208301376000928101602001929092525095945050505050565b6000602080830181845280855180835260408601915060408160051b870101925083870160005b8281101561089357603f19888603018452610881858351610717565b94509285019290850190600101610865565b5092979650505050505050565b634e487b7160e01b600052603260045260246000fd5b600181811c908216806108ca57607f821691505b6020821081036108ea57634e487b7160e01b600052602260045260246000fd5b50919050565b601f82111561069b57600081815260208120601f850160051c810160208610156109175750805b601f850160051c820191505b8181101561093657828155600101610923565b505050505050565b815167ffffffffffffffff81111561095857610958610777565b61096c8161096684546108b6565b846108f0565b602080601f8311600181146109a157600084156109895750858301515b600019600386901b1c1916600185901b178555610936565b600085815260208120601f198616915b828110156109d0578886015182559484019460019091019084016109b1565b50858210156109ee5787850151600019600388901b60f8161c191681555b5050505050600190811b01905550565b634e487b7160e01b600052601160045260246000fd5b81810381811115610a2757610a276109fe565b92915050565b80820180821115610a2757610a276109fe565b818103610a4b575050565b610a5582546108b6565b67ffffffffffffffff811115610a6d57610a6d610777565b610a7b8161096684546108b6565b6000601f821160018114610aaf5760008315610a975750848201545b600019600385901b1c1916600184901b178455610b14565b600085815260209020601f19841690600086815260209020845b83811015610ae95782860154825560019586019590910190602001610ac9565b5085831015610b075781850154600019600388901b60f8161c191681555b50505060018360011b0184555b5050505050565b600060018201610b2d57610b2d6109fe565b5060010190565b634e487b7160e01b600052603160045260246000fdfea2646970667358221220f3f44e91f623017d9e7d7103c58e30e193bceecac9c4bb97f8c76364d2490dca64736f6c63430008130033",
    "linkReferences": {}
  },
  "methodIdentifiers": {
    "addTodo(string)": "95ffebf5",
    "deleteTodo(uint256)": "6e3c6738",
    "getAllCompleted()": "e29672ba",
    "getAllTodo()": "982abb89",
    "getCompleted(uint256)": "1bfc269b",
    "getTodo(uint256)": "dd68afb6",
    "setCompleted(uint256)": "fdacd576",
    "todoCompleted(uint256)": "fe1c7f6f",
    "todos(uint256)": "bc8bc2b4"
  },
  "id": 17
}